{"abi":[{"type":"constructor","inputs":[{"name":"_productContractAddress","type":"address","internalType":"address"}],"stateMutability":"nonpayable"},{"type":"function","name":"commentFee","inputs":[],"outputs":[{"name":"","type":"uint256","internalType":"uint256"}],"stateMutability":"view"},{"type":"function","name":"commentOnFeedback","inputs":[{"name":"_feedbackId","type":"uint256","internalType":"uint256"},{"name":"_text","type":"string","internalType":"string"}],"outputs":[],"stateMutability":"payable"},{"type":"function","name":"feedbackCount","inputs":[],"outputs":[{"name":"","type":"uint256","internalType":"uint256"}],"stateMutability":"view"},{"type":"function","name":"feedbackFee","inputs":[],"outputs":[{"name":"","type":"uint256","internalType":"uint256"}],"stateMutability":"view"},{"type":"function","name":"feedbacks","inputs":[{"name":"","type":"uint256","internalType":"uint256"}],"outputs":[{"name":"id","type":"uint256","internalType":"uint256"},{"name":"productId","type":"uint256","internalType":"uint256"},{"name":"author","type":"address","internalType":"address"},{"name":"title","type":"string","internalType":"string"},{"name":"description","type":"string","internalType":"string"},{"name":"tag","type":"string","internalType":"string"},{"name":"upvotes","type":"uint256","internalType":"uint256"},{"name":"downvotes","type":"uint256","internalType":"uint256"}],"stateMutability":"view"},{"type":"function","name":"getFeedbackByProduct","inputs":[{"name":"_productId","type":"uint256","internalType":"uint256"}],"outputs":[{"name":"","type":"tuple[]","internalType":"struct FeedbackContract.FeedbackView[]","components":[{"name":"id","type":"uint256","internalType":"uint256"},{"name":"productId","type":"uint256","internalType":"uint256"},{"name":"author","type":"address","internalType":"address"},{"name":"title","type":"string","internalType":"string"},{"name":"description","type":"string","internalType":"string"},{"name":"tag","type":"string","internalType":"string"},{"name":"upvotes","type":"uint256","internalType":"uint256"},{"name":"downvotes","type":"uint256","internalType":"uint256"},{"name":"comments","type":"tuple[]","internalType":"struct FeedbackContract.Comment[]","components":[{"name":"commenter","type":"address","internalType":"address"},{"name":"text","type":"string","internalType":"string"}]}]}],"stateMutability":"view"},{"type":"function","name":"owner","inputs":[],"outputs":[{"name":"","type":"address","internalType":"address"}],"stateMutability":"view"},{"type":"function","name":"postFeedback","inputs":[{"name":"_productId","type":"uint256","internalType":"uint256"},{"name":"_title","type":"string","internalType":"string"},{"name":"_description","type":"string","internalType":"string"},{"name":"_tag","type":"string","internalType":"string"}],"outputs":[],"stateMutability":"payable"},{"type":"function","name":"productContract","inputs":[],"outputs":[{"name":"","type":"address","internalType":"contract ProductContract"}],"stateMutability":"view"},{"type":"function","name":"productFeedbacks","inputs":[{"name":"","type":"uint256","internalType":"uint256"},{"name":"","type":"uint256","internalType":"uint256"}],"outputs":[{"name":"","type":"uint256","internalType":"uint256"}],"stateMutability":"view"},{"type":"function","name":"upvoteFee","inputs":[],"outputs":[{"name":"","type":"uint256","internalType":"uint256"}],"stateMutability":"view"},{"type":"function","name":"voteFeedback","inputs":[{"name":"_feedbackId","type":"uint256","internalType":"uint256"},{"name":"_upvote","type":"bool","internalType":"bool"}],"outputs":[],"stateMutability":"payable"},{"type":"function","name":"withdrawFees","inputs":[],"outputs":[],"stateMutability":"nonpayable"},{"type":"event","name":"CommentAdded","inputs":[{"name":"feedbackId","type":"uint256","indexed":false,"internalType":"uint256"},{"name":"commenter","type":"address","indexed":false,"internalType":"address"},{"name":"text","type":"string","indexed":false,"internalType":"string"}],"anonymous":false},{"type":"event","name":"FeedbackPosted","inputs":[{"name":"feedbackId","type":"uint256","indexed":false,"internalType":"uint256"},{"name":"productId","type":"uint256","indexed":false,"internalType":"uint256"},{"name":"author","type":"address","indexed":false,"internalType":"address"},{"name":"title","type":"string","indexed":false,"internalType":"string"},{"name":"description","type":"string","indexed":false,"internalType":"string"},{"name":"tag","type":"string","indexed":false,"internalType":"string"}],"anonymous":false},{"type":"event","name":"FeedbackVoted","inputs":[{"name":"feedbackId","type":"uint256","indexed":false,"internalType":"uint256"},{"name":"upvote","type":"bool","indexed":false,"internalType":"bool"},{"name":"voter","type":"address","indexed":false,"internalType":"address"}],"anonymous":false}],"bytecode":{"object":"0x608060405265479d15bac8006004556523ce8add64006005556523ce8add640060065534801561002e57600080fd5b5060405161171338038061171383398101604081905261004d9161007b565b600780546001600160a01b039092166001600160a01b031992831617905560038054909116331790556100ab565b60006020828403121561008d57600080fd5b81516001600160a01b03811681146100a457600080fd5b9392505050565b611659806100ba6000396000f3fe6080604052600436106100c25760003560e01c8063677a820f1161007f5780638da5cb5b116100595780638da5cb5b146101f6578063b40548dd14610216578063c952b7d31461022c578063f29055fa1461023f57600080fd5b8063677a820f146101ba578063709d098a146101cd5780638c43adc5146101e057600080fd5b806310f324a1146100c75780632a28d4df146100fd5780632bb8b0dc146101355780632ed3f65b14610169578063476343ee1461018d5780636524c334146101a4575b600080fd5b3480156100d357600080fd5b506100e76100e2366004610e80565b61025f565b6040516100f49190610f5e565b60405180910390f35b34801561010957600080fd5b5060075461011d906001600160a01b031681565b6040516001600160a01b0390911681526020016100f4565b34801561014157600080fd5b50610155610150366004610e80565b6106e1565b6040516100f4989796959493929190611061565b34801561017557600080fd5b5061017f60005481565b6040519081526020016100f4565b34801561019957600080fd5b506101a26108c5565b005b3480156101b057600080fd5b5061017f60055481565b6101a26101c83660046111c1565b61096a565b6101a26101db366004611253565b610bcf565b3480156101ec57600080fd5b5061017f60045481565b34801561020257600080fd5b5060035461011d906001600160a01b031681565b34801561022257600080fd5b5061017f60065481565b6101a261023a36600461129a565b610cdc565b34801561024b57600080fd5b5061017f61025a3660046112cf565b610e4f565b60008181526002602090815260408083208054825181850281018501909352808352606094938301828280156102b457602002820191906000526020600020905b8154815260200190600101908083116102a0575b505050505090506000815167ffffffffffffffff8111156102d7576102d76110d3565b60405190808252806020026020018201604052801561036057816020015b61034d604051806101200160405280600081526020016000815260200160006001600160a01b031681526020016060815260200160608152602001606081526020016000815260200160008152602001606081525090565b8152602001906001900390816102f55790505b50905060005b82518110156106d957600060016000858481518110610387576103876112f1565b60200260200101518152602001908152602001600020905060405180610120016040528082600001548152602001826001015481526020018260020160009054906101000a90046001600160a01b03166001600160a01b031681526020018260030180546103f490611307565b80601f016020809104026020016040519081016040528092919081815260200182805461042090611307565b801561046d5780601f106104425761010080835404028352916020019161046d565b820191906000526020600020905b81548152906001019060200180831161045057829003601f168201915b5050505050815260200182600401805461048690611307565b80601f01602080910402602001604051908101604052809291908181526020018280546104b290611307565b80156104ff5780601f106104d4576101008083540402835291602001916104ff565b820191906000526020600020905b8154815290600101906020018083116104e257829003601f168201915b5050505050815260200182600501805461051890611307565b80601f016020809104026020016040519081016040528092919081815260200182805461054490611307565b80156105915780601f1061056657610100808354040283529160200191610591565b820191906000526020600020905b81548152906001019060200180831161057457829003601f168201915b50505050508152602001826006015481526020018260070154815260200182600801805480602002602001604051908101604052809291908181526020016000905b828210156106ac576000848152602090819020604080518082019091526002850290910180546001600160a01b03168252600181018054929391929184019161061b90611307565b80601f016020809104026020016040519081016040528092919081815260200182805461064790611307565b80156106945780601f1061066957610100808354040283529160200191610694565b820191906000526020600020905b81548152906001019060200180831161067757829003601f168201915b505050505081525050815260200190600101906105d3565b505050508152508383815181106106c5576106c56112f1565b602090810291909101015250600101610366565b509392505050565b6001602081905260009182526040909120805491810154600282015460038301805492936001600160a01b039092169261071a90611307565b80601f016020809104026020016040519081016040528092919081815260200182805461074690611307565b80156107935780601f1061076857610100808354040283529160200191610793565b820191906000526020600020905b81548152906001019060200180831161077657829003601f168201915b5050505050908060040180546107a890611307565b80601f01602080910402602001604051908101604052809291908181526020018280546107d490611307565b80156108215780601f106107f657610100808354040283529160200191610821565b820191906000526020600020905b81548152906001019060200180831161080457829003601f168201915b50505050509080600501805461083690611307565b80601f016020809104026020016040519081016040528092919081815260200182805461086290611307565b80156108af5780601f10610884576101008083540402835291602001916108af565b820191906000526020600020905b81548152906001019060200180831161089257829003601f168201915b5050505050908060060154908060070154905088565b6003546001600160a01b0316331461092e5760405162461bcd60e51b815260206004820152602160248201527f4f6e6c79206f776e65722063616e2063616c6c20746869732066756e6374696f6044820152603760f91b60648201526084015b60405180910390fd5b6003546040516001600160a01b03909116904780156108fc02916000818181858888f19350505050158015610967573d6000803e3d6000fd5b50565b6005543410156109ca5760405162461bcd60e51b815260206004820152602560248201527f496e73756666696369656e742066656520666f7220706f7374696e6720666565604482015264646261636b60d81b6064820152608401610925565b600754604051632e76c56d60e21b8152600481018690526001600160a01b039091169063b9db15b490602401600060405180830381865afa158015610a13573d6000803e3d6000fd5b505050506040513d6000823e601f3d908101601f19168201604052610a3b919081019061138e565b51600003610a845760405162461bcd60e51b8152602060048201526016602482015275141c9bd91d58dd08191bd95cc81b9bdd08195e1a5cdd60521b6044820152606401610925565b600080549080610a9383611458565b9091555050600080548082526001602081905260409092209081559081018590556002810180546001600160a01b0319163317905560038101610ad685826114d0565b5060048101610ae584826114d0565b5060058101610af483826114d0565b506000600682018190556007808301829055868252600260209081526040808420845481546001810183559186529290942090930155549051635f14367f60e11b8152600481018790526001600160a01b039091169063be286cfe90602401600060405180830381600087803b158015610b6d57600080fd5b505af1158015610b81573d6000803e3d6000fd5b505050507f453fc5efc087baa1e3c29dc265de3af62504ea01b0d189393ebb2b3267e57a956000548633878787604051610bc096959493929190611590565b60405180910390a15050505050565b600654341015610c2f5760405162461bcd60e51b815260206004820152602560248201527f496e73756666696369656e742066656520666f7220616464696e67206120636f6044820152641b5b595b9d60da1b6064820152608401610925565b60008281526001602081815260408084208151808301909252338252818301868152600882018054808701825590875293909520825160029094020180546001600160a01b0319166001600160a01b0390941693909317835593519092820190610c9990826114d0565b5050507fcc2d7dd2085ae6644799a42c0174adf9afc10a43f26db5eac3ddd1f96d1d64be833384604051610ccf939291906115f0565b60405180910390a1505050565b600454341015610d2e5760405162461bcd60e51b815260206004820152601b60248201527f496e73756666696369656e742066656520666f7220766f74696e6700000000006044820152606401610925565b6000828152600160209081526040808320338452600981019092529091205460ff1615610dad5760405162461bcd60e51b815260206004820152602760248201527f596f75206861766520616c726561647920766f746564206f6e207468697320666044820152666565646261636b60c81b6064820152608401610925565b8115610dcf57600681018054906000610dc583611458565b9190505550610de7565b600781018054906000610de183611458565b91905055505b33600081815260098301602052604090819020805460ff19166001179055517f0431de8e805eaa8aab471e384e59fa8993b23854d40ac13a038b266a6a92365c91610ccf918691869192835290151560208301526001600160a01b0316604082015260600190565b60026020528160005260406000208181548110610e6b57600080fd5b90600052602060002001600091509150505481565b600060208284031215610e9257600080fd5b5035919050565b60005b83811015610eb4578181015183820152602001610e9c565b50506000910152565b60008151808452610ed5816020860160208601610e99565b601f01601f19169290920160200192915050565b600082825180855260208086019550808260051b84010181860160005b84811015610f5157858303601f19018952815180516001600160a01b031684528401516040858501819052610f3d81860183610ebd565b9a86019a9450505090830190600101610f06565b5090979650505050505050565b600060208083018184528085518083526040925060408601915060408160051b87010184880160005b8381101561105357888303603f190185528151805184528781015188850152868101516001600160a01b0381168886015261012090506060808301518282880152610fd483880182610ebd565b9250505060808083015186830382880152610fef8382610ebd565b9250505060a0808301518683038288015261100a8382610ebd565b9250505060c080830151818701525060e0808301518187015250610100808301519250858203818701525061103f8183610ee9565b968901969450505090860190600101610f87565b509098975050505050505050565b888152602081018890526001600160a01b03871660408201526101006060820181905260009061109383820189610ebd565b905082810360808401526110a78188610ebd565b905082810360a08401526110bb8187610ebd565b60c0840195909552505060e001529695505050505050565b634e487b7160e01b600052604160045260246000fd5b60405160a0810167ffffffffffffffff8111828210171561110c5761110c6110d3565b60405290565b604051601f8201601f1916810167ffffffffffffffff8111828210171561113b5761113b6110d3565b604052919050565b600067ffffffffffffffff82111561115d5761115d6110d3565b50601f01601f191660200190565b600082601f83011261117c57600080fd5b813561118f61118a82611143565b611112565b8181528460208386010111156111a457600080fd5b816020850160208301376000918101602001919091529392505050565b600080600080608085870312156111d757600080fd5b84359350602085013567ffffffffffffffff808211156111f657600080fd5b6112028883890161116b565b9450604087013591508082111561121857600080fd5b6112248883890161116b565b9350606087013591508082111561123a57600080fd5b506112478782880161116b565b91505092959194509250565b6000806040838503121561126657600080fd5b82359150602083013567ffffffffffffffff81111561128457600080fd5b6112908582860161116b565b9150509250929050565b600080604083850312156112ad57600080fd5b82359150602083013580151581146112c457600080fd5b809150509250929050565b600080604083850312156112e257600080fd5b50508035926020909101359150565b634e487b7160e01b600052603260045260246000fd5b600181811c9082168061131b57607f821691505b60208210810361133b57634e487b7160e01b600052602260045260246000fd5b50919050565b600082601f83011261135257600080fd5b815161136061118a82611143565b81815284602083860101111561137557600080fd5b611386826020830160208701610e99565b949350505050565b6000602082840312156113a057600080fd5b815167ffffffffffffffff808211156113b857600080fd5b9083019060a082860312156113cc57600080fd5b6113d46110e9565b825181526020830151828111156113ea57600080fd5b6113f687828601611341565b60208301525060408301518281111561140e57600080fd5b61141a87828601611341565b604083015250606083015191506001600160a01b038216821461143c57600080fd5b8160608201526080830151608082015280935050505092915050565b60006001820161147857634e487b7160e01b600052601160045260246000fd5b5060010190565b601f8211156114cb576000816000526020600020601f850160051c810160208610156114a85750805b601f850160051c820191505b818110156114c7578281556001016114b4565b5050505b505050565b815167ffffffffffffffff8111156114ea576114ea6110d3565b6114fe816114f88454611307565b8461147f565b602080601f831160018114611533576000841561151b5750858301515b600019600386901b1c1916600185901b1785556114c7565b600085815260208120601f198616915b8281101561156257888601518255948401946001909101908401611543565b50858210156115805787850151600019600388901b60f8161c191681555b5050505050600190811b01905550565b86815285602082015260018060a01b038516604082015260c0606082015260006115bd60c0830186610ebd565b82810360808401526115cf8186610ebd565b905082810360a08401526115e38185610ebd565b9998505050505050505050565b8381526001600160a01b038316602082015260606040820181905260009061161a90830184610ebd565b9594505050505056fea264697066735822122045fcc69d3b50aa5d67c2c98dd684d4f956a31820172c5c05386b1f55040a92e764736f6c63430008170033","linkReferences":{}},"methodIdentifiers":{"commentFee()":"b40548dd","commentOnFeedback(uint256,string)":"709d098a","feedbackCount()":"2ed3f65b","feedbackFee()":"6524c334","feedbacks(uint256)":"2bb8b0dc","getFeedbackByProduct(uint256)":"10f324a1","owner()":"8da5cb5b","postFeedback(uint256,string,string,string)":"677a820f","productContract()":"2a28d4df","productFeedbacks(uint256,uint256)":"f29055fa","upvoteFee()":"8c43adc5","voteFeedback(uint256,bool)":"c952b7d3","withdrawFees()":"476343ee"},"id":20}