{"abi":[{"type":"constructor","inputs":[{"name":"_productContractAddress","type":"address","internalType":"address"}],"stateMutability":"nonpayable"},{"type":"function","name":"commentFee","inputs":[],"outputs":[{"name":"","type":"uint256","internalType":"uint256"}],"stateMutability":"view"},{"type":"function","name":"commentOnFeedback","inputs":[{"name":"_feedbackId","type":"uint256","internalType":"uint256"},{"name":"_text","type":"string","internalType":"string"}],"outputs":[],"stateMutability":"payable"},{"type":"function","name":"feedbackCount","inputs":[],"outputs":[{"name":"","type":"uint256","internalType":"uint256"}],"stateMutability":"view"},{"type":"function","name":"feedbackFee","inputs":[],"outputs":[{"name":"","type":"uint256","internalType":"uint256"}],"stateMutability":"view"},{"type":"function","name":"feedbacks","inputs":[{"name":"","type":"uint256","internalType":"uint256"}],"outputs":[{"name":"id","type":"uint256","internalType":"uint256"},{"name":"productId","type":"uint256","internalType":"uint256"},{"name":"author","type":"address","internalType":"address"},{"name":"title","type":"string","internalType":"string"},{"name":"description","type":"string","internalType":"string"},{"name":"tag","type":"string","internalType":"string"},{"name":"upvotes","type":"uint256","internalType":"uint256"},{"name":"downvotes","type":"uint256","internalType":"uint256"}],"stateMutability":"view"},{"type":"function","name":"getFeedbackByProduct","inputs":[{"name":"_productId","type":"uint256","internalType":"uint256"}],"outputs":[{"name":"","type":"tuple[]","internalType":"struct FeedbackContract.FeedbackView[]","components":[{"name":"id","type":"uint256","internalType":"uint256"},{"name":"productId","type":"uint256","internalType":"uint256"},{"name":"author","type":"address","internalType":"address"},{"name":"title","type":"string","internalType":"string"},{"name":"description","type":"string","internalType":"string"},{"name":"tag","type":"string","internalType":"string"},{"name":"upvotes","type":"uint256","internalType":"uint256"},{"name":"downvotes","type":"uint256","internalType":"uint256"},{"name":"comments","type":"tuple[]","internalType":"struct FeedbackContract.Comment[]","components":[{"name":"commenter","type":"address","internalType":"address"},{"name":"text","type":"string","internalType":"string"}]}]}],"stateMutability":"view"},{"type":"function","name":"owner","inputs":[],"outputs":[{"name":"","type":"address","internalType":"address"}],"stateMutability":"view"},{"type":"function","name":"postFeedback","inputs":[{"name":"_productId","type":"uint256","internalType":"uint256"},{"name":"_title","type":"string","internalType":"string"},{"name":"_description","type":"string","internalType":"string"},{"name":"_tag","type":"string","internalType":"string"}],"outputs":[],"stateMutability":"payable"},{"type":"function","name":"productContract","inputs":[],"outputs":[{"name":"","type":"address","internalType":"contract ProductContract"}],"stateMutability":"view"},{"type":"function","name":"productFeedbacks","inputs":[{"name":"","type":"uint256","internalType":"uint256"},{"name":"","type":"uint256","internalType":"uint256"}],"outputs":[{"name":"","type":"uint256","internalType":"uint256"}],"stateMutability":"view"},{"type":"function","name":"upvoteFee","inputs":[],"outputs":[{"name":"","type":"uint256","internalType":"uint256"}],"stateMutability":"view"},{"type":"function","name":"voteFeedback","inputs":[{"name":"_feedbackId","type":"uint256","internalType":"uint256"},{"name":"_upvote","type":"bool","internalType":"bool"}],"outputs":[],"stateMutability":"payable"},{"type":"function","name":"withdrawFees","inputs":[],"outputs":[],"stateMutability":"nonpayable"},{"type":"event","name":"CommentAdded","inputs":[{"name":"feedbackId","type":"uint256","indexed":false,"internalType":"uint256"},{"name":"commenter","type":"address","indexed":false,"internalType":"address"},{"name":"text","type":"string","indexed":false,"internalType":"string"}],"anonymous":false},{"type":"event","name":"FeedbackPosted","inputs":[{"name":"feedbackId","type":"uint256","indexed":false,"internalType":"uint256"},{"name":"productId","type":"uint256","indexed":false,"internalType":"uint256"},{"name":"author","type":"address","indexed":false,"internalType":"address"},{"name":"title","type":"string","indexed":false,"internalType":"string"},{"name":"description","type":"string","indexed":false,"internalType":"string"},{"name":"tag","type":"string","indexed":false,"internalType":"string"}],"anonymous":false},{"type":"event","name":"FeedbackVoted","inputs":[{"name":"feedbackId","type":"uint256","indexed":false,"internalType":"uint256"},{"name":"upvote","type":"bool","indexed":false,"internalType":"bool"},{"name":"voter","type":"address","indexed":false,"internalType":"address"}],"anonymous":false}],"bytecode":{"object":"0x608060405265479d15bac8006004556523ce8add64006005556523ce8add640060065534801561002e57600080fd5b506040516116b53803806116b583398101604081905261004d9161007b565b600780546001600160a01b039092166001600160a01b031992831617905560038054909116331790556100ab565b60006020828403121561008d57600080fd5b81516001600160a01b03811681146100a457600080fd5b9392505050565b6115fb806100ba6000396000f3fe6080604052600436106100c25760003560e01c8063677a820f1161007f5780638da5cb5b116100595780638da5cb5b146101f6578063b40548dd14610216578063c952b7d31461022c578063f29055fa1461023f57600080fd5b8063677a820f146101ba578063709d098a146101cd5780638c43adc5146101e057600080fd5b806310f324a1146100c75780632a28d4df146100fd5780632bb8b0dc146101355780632ed3f65b14610169578063476343ee1461018d5780636524c334146101a4575b600080fd5b3480156100d357600080fd5b506100e76100e2366004610e22565b61025f565b6040516100f49190610f00565b60405180910390f35b34801561010957600080fd5b5060075461011d906001600160a01b031681565b6040516001600160a01b0390911681526020016100f4565b34801561014157600080fd5b50610155610150366004610e22565b6106e1565b6040516100f4989796959493929190611003565b34801561017557600080fd5b5061017f60005481565b6040519081526020016100f4565b34801561019957600080fd5b506101a26108c5565b005b3480156101b057600080fd5b5061017f60055481565b6101a26101c8366004611163565b61096a565b6101a26101db3660046111f5565b610b71565b3480156101ec57600080fd5b5061017f60045481565b34801561020257600080fd5b5060035461011d906001600160a01b031681565b34801561022257600080fd5b5061017f60065481565b6101a261023a36600461123c565b610c7e565b34801561024b57600080fd5b5061017f61025a366004611271565b610df1565b60008181526002602090815260408083208054825181850281018501909352808352606094938301828280156102b457602002820191906000526020600020905b8154815260200190600101908083116102a0575b505050505090506000815167ffffffffffffffff8111156102d7576102d7611075565b60405190808252806020026020018201604052801561036057816020015b61034d604051806101200160405280600081526020016000815260200160006001600160a01b031681526020016060815260200160608152602001606081526020016000815260200160008152602001606081525090565b8152602001906001900390816102f55790505b50905060005b82518110156106d95760006001600085848151811061038757610387611293565b60200260200101518152602001908152602001600020905060405180610120016040528082600001548152602001826001015481526020018260020160009054906101000a90046001600160a01b03166001600160a01b031681526020018260030180546103f4906112a9565b80601f0160208091040260200160405190810160405280929190818152602001828054610420906112a9565b801561046d5780601f106104425761010080835404028352916020019161046d565b820191906000526020600020905b81548152906001019060200180831161045057829003601f168201915b50505050508152602001826004018054610486906112a9565b80601f01602080910402602001604051908101604052809291908181526020018280546104b2906112a9565b80156104ff5780601f106104d4576101008083540402835291602001916104ff565b820191906000526020600020905b8154815290600101906020018083116104e257829003601f168201915b50505050508152602001826005018054610518906112a9565b80601f0160208091040260200160405190810160405280929190818152602001828054610544906112a9565b80156105915780601f1061056657610100808354040283529160200191610591565b820191906000526020600020905b81548152906001019060200180831161057457829003601f168201915b50505050508152602001826006015481526020018260070154815260200182600801805480602002602001604051908101604052809291908181526020016000905b828210156106ac576000848152602090819020604080518082019091526002850290910180546001600160a01b03168252600181018054929391929184019161061b906112a9565b80601f0160208091040260200160405190810160405280929190818152602001828054610647906112a9565b80156106945780601f1061066957610100808354040283529160200191610694565b820191906000526020600020905b81548152906001019060200180831161067757829003601f168201915b505050505081525050815260200190600101906105d3565b505050508152508383815181106106c5576106c5611293565b602090810291909101015250600101610366565b509392505050565b6001602081905260009182526040909120805491810154600282015460038301805492936001600160a01b039092169261071a906112a9565b80601f0160208091040260200160405190810160405280929190818152602001828054610746906112a9565b80156107935780601f1061076857610100808354040283529160200191610793565b820191906000526020600020905b81548152906001019060200180831161077657829003601f168201915b5050505050908060040180546107a8906112a9565b80601f01602080910402602001604051908101604052809291908181526020018280546107d4906112a9565b80156108215780601f106107f657610100808354040283529160200191610821565b820191906000526020600020905b81548152906001019060200180831161080457829003601f168201915b505050505090806005018054610836906112a9565b80601f0160208091040260200160405190810160405280929190818152602001828054610862906112a9565b80156108af5780601f10610884576101008083540402835291602001916108af565b820191906000526020600020905b81548152906001019060200180831161089257829003601f168201915b5050505050908060060154908060070154905088565b6003546001600160a01b0316331461092e5760405162461bcd60e51b815260206004820152602160248201527f4f6e6c79206f776e65722063616e2063616c6c20746869732066756e6374696f6044820152603760f91b60648201526084015b60405180910390fd5b6003546040516001600160a01b03909116904780156108fc02916000818181858888f19350505050158015610967573d6000803e3d6000fd5b50565b6005543410156109ca5760405162461bcd60e51b815260206004820152602560248201527f496e73756666696369656e742066656520666f7220706f7374696e6720666565604482015264646261636b60d81b6064820152608401610925565b600754604051632e76c56d60e21b8152600481018690526001600160a01b039091169063b9db15b490602401600060405180830381865afa158015610a13573d6000803e3d6000fd5b505050506040513d6000823e601f3d908101601f19168201604052610a3b9190810190611330565b51600003610a845760405162461bcd60e51b8152602060048201526016602482015275141c9bd91d58dd08191bd95cc81b9bdd08195e1a5cdd60521b6044820152606401610925565b600080549080610a93836113fa565b9091555050600080548082526001602081905260409092209081559081018590556002810180546001600160a01b0319163317905560038101610ad68582611472565b5060048101610ae58482611472565b5060058101610af48382611472565b5060006006820181905560078201819055858152600260209081526040808320835481546001810183559185529284200191909155905490517f453fc5efc087baa1e3c29dc265de3af62504ea01b0d189393ebb2b3267e57a9591610b629188903390899089908990611532565b60405180910390a15050505050565b600654341015610bd15760405162461bcd60e51b815260206004820152602560248201527f496e73756666696369656e742066656520666f7220616464696e67206120636f6044820152641b5b595b9d60da1b6064820152608401610925565b60008281526001602081815260408084208151808301909252338252818301868152600882018054808701825590875293909520825160029094020180546001600160a01b0319166001600160a01b0390941693909317835593519092820190610c3b9082611472565b5050507fcc2d7dd2085ae6644799a42c0174adf9afc10a43f26db5eac3ddd1f96d1d64be833384604051610c7193929190611592565b60405180910390a1505050565b600454341015610cd05760405162461bcd60e51b815260206004820152601b60248201527f496e73756666696369656e742066656520666f7220766f74696e6700000000006044820152606401610925565b6000828152600160209081526040808320338452600981019092529091205460ff1615610d4f5760405162461bcd60e51b815260206004820152602760248201527f596f75206861766520616c726561647920766f746564206f6e207468697320666044820152666565646261636b60c81b6064820152608401610925565b8115610d7157600681018054906000610d67836113fa565b9190505550610d89565b600781018054906000610d83836113fa565b91905055505b33600081815260098301602052604090819020805460ff19166001179055517f0431de8e805eaa8aab471e384e59fa8993b23854d40ac13a038b266a6a92365c91610c71918691869192835290151560208301526001600160a01b0316604082015260600190565b60026020528160005260406000208181548110610e0d57600080fd5b90600052602060002001600091509150505481565b600060208284031215610e3457600080fd5b5035919050565b60005b83811015610e56578181015183820152602001610e3e565b50506000910152565b60008151808452610e77816020860160208601610e3b565b601f01601f19169290920160200192915050565b600082825180855260208086019550808260051b84010181860160005b84811015610ef357858303601f19018952815180516001600160a01b031684528401516040858501819052610edf81860183610e5f565b9a86019a9450505090830190600101610ea8565b5090979650505050505050565b600060208083018184528085518083526040925060408601915060408160051b87010184880160005b83811015610ff557888303603f190185528151805184528781015188850152868101516001600160a01b0381168886015261012090506060808301518282880152610f7683880182610e5f565b9250505060808083015186830382880152610f918382610e5f565b9250505060a08083015186830382880152610fac8382610e5f565b9250505060c080830151818701525060e08083015181870152506101008083015192508582038187015250610fe18183610e8b565b968901969450505090860190600101610f29565b509098975050505050505050565b888152602081018890526001600160a01b03871660408201526101006060820181905260009061103583820189610e5f565b905082810360808401526110498188610e5f565b905082810360a084015261105d8187610e5f565b60c0840195909552505060e001529695505050505050565b634e487b7160e01b600052604160045260246000fd5b60405160a0810167ffffffffffffffff811182821017156110ae576110ae611075565b60405290565b604051601f8201601f1916810167ffffffffffffffff811182821017156110dd576110dd611075565b604052919050565b600067ffffffffffffffff8211156110ff576110ff611075565b50601f01601f191660200190565b600082601f83011261111e57600080fd5b813561113161112c826110e5565b6110b4565b81815284602083860101111561114657600080fd5b816020850160208301376000918101602001919091529392505050565b6000806000806080858703121561117957600080fd5b84359350602085013567ffffffffffffffff8082111561119857600080fd5b6111a48883890161110d565b945060408701359150808211156111ba57600080fd5b6111c68883890161110d565b935060608701359150808211156111dc57600080fd5b506111e98782880161110d565b91505092959194509250565b6000806040838503121561120857600080fd5b82359150602083013567ffffffffffffffff81111561122657600080fd5b6112328582860161110d565b9150509250929050565b6000806040838503121561124f57600080fd5b823591506020830135801515811461126657600080fd5b809150509250929050565b6000806040838503121561128457600080fd5b50508035926020909101359150565b634e487b7160e01b600052603260045260246000fd5b600181811c908216806112bd57607f821691505b6020821081036112dd57634e487b7160e01b600052602260045260246000fd5b50919050565b600082601f8301126112f457600080fd5b815161130261112c826110e5565b81815284602083860101111561131757600080fd5b611328826020830160208701610e3b565b949350505050565b60006020828403121561134257600080fd5b815167ffffffffffffffff8082111561135a57600080fd5b9083019060a0828603121561136e57600080fd5b61137661108b565b8251815260208301518281111561138c57600080fd5b611398878286016112e3565b6020830152506040830151828111156113b057600080fd5b6113bc878286016112e3565b604083015250606083015191506001600160a01b03821682146113de57600080fd5b8160608201526080830151608082015280935050505092915050565b60006001820161141a57634e487b7160e01b600052601160045260246000fd5b5060010190565b601f82111561146d576000816000526020600020601f850160051c8101602086101561144a5750805b601f850160051c820191505b8181101561146957828155600101611456565b5050505b505050565b815167ffffffffffffffff81111561148c5761148c611075565b6114a08161149a84546112a9565b84611421565b602080601f8311600181146114d557600084156114bd5750858301515b600019600386901b1c1916600185901b178555611469565b600085815260208120601f198616915b82811015611504578886015182559484019460019091019084016114e5565b50858210156115225787850151600019600388901b60f8161c191681555b5050505050600190811b01905550565b86815285602082015260018060a01b038516604082015260c06060820152600061155f60c0830186610e5f565b82810360808401526115718186610e5f565b905082810360a08401526115858185610e5f565b9998505050505050505050565b8381526001600160a01b03831660208201526060604082018190526000906115bc90830184610e5f565b9594505050505056fea264697066735822122032bc42894d9d9765bd7ab53e2694804080376603d9436c241156c3f588cda14f64736f6c63430008170033","linkReferences":{}},"methodIdentifiers":{"commentFee()":"b40548dd","commentOnFeedback(uint256,string)":"709d098a","feedbackCount()":"2ed3f65b","feedbackFee()":"6524c334","feedbacks(uint256)":"2bb8b0dc","getFeedbackByProduct(uint256)":"10f324a1","owner()":"8da5cb5b","postFeedback(uint256,string,string,string)":"677a820f","productContract()":"2a28d4df","productFeedbacks(uint256,uint256)":"f29055fa","upvoteFee()":"8c43adc5","voteFeedback(uint256,bool)":"c952b7d3","withdrawFees()":"476343ee"},"id":20}