{"abi":[{"type":"constructor","inputs":[],"stateMutability":"nonpayable"},{"type":"function","name":"addFeedback","inputs":[{"name":"_productId","type":"uint256","internalType":"uint256"}],"outputs":[],"stateMutability":"nonpayable"},{"type":"function","name":"addProduct","inputs":[{"name":"_name","type":"string","internalType":"string"},{"name":"_description","type":"string","internalType":"string"}],"outputs":[],"stateMutability":"payable"},{"type":"function","name":"addProductFee","inputs":[],"outputs":[{"name":"","type":"uint256","internalType":"uint256"}],"stateMutability":"view"},{"type":"function","name":"getAllProducts","inputs":[],"outputs":[{"name":"","type":"tuple[]","internalType":"struct ProductContract.Product[]","components":[{"name":"id","type":"uint256","internalType":"uint256"},{"name":"name","type":"string","internalType":"string"},{"name":"description","type":"string","internalType":"string"},{"name":"creator","type":"address","internalType":"address"},{"name":"feedbackCount","type":"uint256","internalType":"uint256"}]}],"stateMutability":"view"},{"type":"function","name":"getProduct","inputs":[{"name":"_productId","type":"uint256","internalType":"uint256"}],"outputs":[{"name":"","type":"tuple","internalType":"struct ProductContract.Product","components":[{"name":"id","type":"uint256","internalType":"uint256"},{"name":"name","type":"string","internalType":"string"},{"name":"description","type":"string","internalType":"string"},{"name":"creator","type":"address","internalType":"address"},{"name":"feedbackCount","type":"uint256","internalType":"uint256"}]}],"stateMutability":"view"},{"type":"function","name":"owner","inputs":[],"outputs":[{"name":"","type":"address","internalType":"address"}],"stateMutability":"view"},{"type":"function","name":"productCount","inputs":[],"outputs":[{"name":"","type":"uint256","internalType":"uint256"}],"stateMutability":"view"},{"type":"function","name":"products","inputs":[{"name":"","type":"uint256","internalType":"uint256"}],"outputs":[{"name":"id","type":"uint256","internalType":"uint256"},{"name":"name","type":"string","internalType":"string"},{"name":"description","type":"string","internalType":"string"},{"name":"creator","type":"address","internalType":"address"},{"name":"feedbackCount","type":"uint256","internalType":"uint256"}],"stateMutability":"view"},{"type":"function","name":"withdrawFees","inputs":[],"outputs":[],"stateMutability":"nonpayable"},{"type":"event","name":"FeedbackAdded","inputs":[{"name":"productId","type":"uint256","indexed":false,"internalType":"uint256"}],"anonymous":false},{"type":"event","name":"ProductAdded","inputs":[{"name":"productId","type":"uint256","indexed":false,"internalType":"uint256"},{"name":"creator","type":"address","indexed":false,"internalType":"address"},{"name":"name","type":"string","indexed":false,"internalType":"string"},{"name":"description","type":"string","indexed":false,"internalType":"string"}],"anonymous":false}],"bytecode":{"object":"0x608060405266015b276ef3470060035534801561001b57600080fd5b50600280546001600160a01b03191633179055610e1c8061003d6000396000f3fe6080604052600436106100865760003560e01c80638da5cb5b116100595780638da5cb5b14610122578063991594f31461015a578063b9db15b41461017a578063ca2efb55146101a7578063e0f6ef87146101ba57600080fd5b806302ee3a521461008b57806320982c04146100b6578063476343ee146100da5780637acc0b20146100f1575b600080fd5b34801561009757600080fd5b506100a06101d0565b6040516100ad9190610a15565b60405180910390f35b3480156100c257600080fd5b506100cc60035481565b6040519081526020016100ad565b3480156100e657600080fd5b506100ef6103d9565b005b3480156100fd57600080fd5b5061011161010c366004610a79565b61047e565b6040516100ad959493929190610a92565b34801561012e57600080fd5b50600254610142906001600160a01b031681565b6040516001600160a01b0390911681526020016100ad565b34801561016657600080fd5b506100ef610175366004610a79565b6105c6565b34801561018657600080fd5b5061019a610195366004610a79565b610675565b6040516100ad9190610adb565b6100ef6101b5366004610b98565b6107e6565b3480156101c657600080fd5b506100cc60005481565b60606000805467ffffffffffffffff8111156101ee576101ee610af5565b60405190808252806020026020018201604052801561022757816020015b610214610936565b81526020019060019003908161020c5790505b50905060015b60005481116103d357600081815260016020818152604092839020835160a081019094528054845291820180549184019161026790610bfc565b80601f016020809104026020016040519081016040528092919081815260200182805461029390610bfc565b80156102e05780601f106102b5576101008083540402835291602001916102e0565b820191906000526020600020905b8154815290600101906020018083116102c357829003601f168201915b505050505081526020016002820180546102f990610bfc565b80601f016020809104026020016040519081016040528092919081815260200182805461032590610bfc565b80156103725780601f1061034757610100808354040283529160200191610372565b820191906000526020600020905b81548152906001019060200180831161035557829003601f168201915b505050918352505060038201546001600160a01b03166020820152600490910154604090910152826103a5600184610c46565b815181106103b5576103b5610c5f565b602002602001018190525080806103cb90610c75565b91505061022d565b50919050565b6002546001600160a01b031633146104425760405162461bcd60e51b815260206004820152602160248201527f4f6e6c79206f776e65722063616e2063616c6c20746869732066756e6374696f6044820152603760f91b60648201526084015b60405180910390fd5b6002546040516001600160a01b03909116904780156108fc02916000818181858888f1935050505015801561047b573d6000803e3d6000fd5b50565b60016020819052600091825260409091208054918101805461049f90610bfc565b80601f01602080910402602001604051908101604052809291908181526020018280546104cb90610bfc565b80156105185780601f106104ed57610100808354040283529160200191610518565b820191906000526020600020905b8154815290600101906020018083116104fb57829003601f168201915b50505050509080600201805461052d90610bfc565b80601f016020809104026020016040519081016040528092919081815260200182805461055990610bfc565b80156105a65780601f1061057b576101008083540402835291602001916105a6565b820191906000526020600020905b81548152906001019060200180831161058957829003601f168201915b50505050600383015460049093015491926001600160a01b031691905085565b6000811180156105d857506000548111155b61061d5760405162461bcd60e51b8152602060048201526016602482015275141c9bd91d58dd08191bd95cc81b9bdd08195e1a5cdd60521b6044820152606401610439565b600081815260016020526040812060040180549161063a83610c75565b90915550506040518181527fc881456b2c63ccebd14a8d271832a69f9c2ed9b36bf52df15cebdbe1dfd871ec9060200160405180910390a150565b61067d610936565b600082815260016020818152604092839020835160a08101909452805484529182018054918401916106ae90610bfc565b80601f01602080910402602001604051908101604052809291908181526020018280546106da90610bfc565b80156107275780601f106106fc57610100808354040283529160200191610727565b820191906000526020600020905b81548152906001019060200180831161070a57829003601f168201915b5050505050815260200160028201805461074090610bfc565b80601f016020809104026020016040519081016040528092919081815260200182805461076c90610bfc565b80156107b95780601f1061078e576101008083540402835291602001916107b9565b820191906000526020600020905b81548152906001019060200180831161079c57829003601f168201915b505050918352505060038201546001600160a01b0316602082015260049091015460409091015292915050565b6003543410156108465760405162461bcd60e51b815260206004820152602560248201527f496e73756666696369656e742066656520666f7220616464696e6720612070726044820152641bd91d58dd60da1b6064820152608401610439565b60008054908061085583610c75565b90915550506040805160a081018252600080548083526020808401878152848601879052336060860152608085018490529183526001908190529390912082518155905191929091908201906108ab9082610cdf565b50604082015160028201906108c09082610cdf565b5060608201516003820180546001600160a01b0319166001600160a01b039092169190911790556080909101516004909101556000546040517f6b3f37913aaf9478733d6bfbdd423a3362aa3ee9eb58d39d95699471bb1570279161092a91339086908690610d9f565b60405180910390a15050565b6040518060a0016040528060008152602001606081526020016060815260200160006001600160a01b03168152602001600081525090565b6000815180845260005b8181101561099457602081850181015186830182015201610978565b506000602082860101526020601f19601f83011685010191505092915050565b805182526000602082015160a060208501526109d360a085018261096e565b9050604083015184820360408601526109ec828261096e565b6060858101516001600160a01b0316908701526080948501519490950193909352509192915050565b600060208083016020845280855180835260408601915060408160051b87010192506020870160005b82811015610a6c57603f19888603018452610a5a8583516109b4565b94509285019290850190600101610a3e565b5092979650505050505050565b600060208284031215610a8b57600080fd5b5035919050565b85815260a060208201526000610aab60a083018761096e565b8281036040840152610abd818761096e565b6001600160a01b039590951660608401525050608001529392505050565b602081526000610aee60208301846109b4565b9392505050565b634e487b7160e01b600052604160045260246000fd5b600082601f830112610b1c57600080fd5b813567ffffffffffffffff80821115610b3757610b37610af5565b604051601f8301601f19908116603f01168101908282118183101715610b5f57610b5f610af5565b81604052838152866020858801011115610b7857600080fd5b836020870160208301376000602085830101528094505050505092915050565b60008060408385031215610bab57600080fd5b823567ffffffffffffffff80821115610bc357600080fd5b610bcf86838701610b0b565b93506020850135915080821115610be557600080fd5b50610bf285828601610b0b565b9150509250929050565b600181811c90821680610c1057607f821691505b6020821081036103d357634e487b7160e01b600052602260045260246000fd5b634e487b7160e01b600052601160045260246000fd5b81810381811115610c5957610c59610c30565b92915050565b634e487b7160e01b600052603260045260246000fd5b600060018201610c8757610c87610c30565b5060010190565b601f821115610cda576000816000526020600020601f850160051c81016020861015610cb75750805b601f850160051c820191505b81811015610cd657828155600101610cc3565b5050505b505050565b815167ffffffffffffffff811115610cf957610cf9610af5565b610d0d81610d078454610bfc565b84610c8e565b602080601f831160018114610d425760008415610d2a5750858301515b600019600386901b1c1916600185901b178555610cd6565b600085815260208120601f198616915b82811015610d7157888601518255948401946001909101908401610d52565b5085821015610d8f5787850151600019600388901b60f8161c191681555b5050505050600190811b01905550565b8481526001600160a01b0384166020820152608060408201819052600090610dc99083018561096e565b8281036060840152610ddb818561096e565b97965050505050505056fea2646970667358221220fc0b15d207cf7323e3e2d67f06252342e818c9323acbcab5ac9cd8c55de5e16364736f6c63430008170033","linkReferences":{}},"methodIdentifiers":{"addFeedback(uint256)":"991594f3","addProduct(string,string)":"ca2efb55","addProductFee()":"20982c04","getAllProducts()":"02ee3a52","getProduct(uint256)":"b9db15b4","owner()":"8da5cb5b","productCount()":"e0f6ef87","products(uint256)":"7acc0b20","withdrawFees()":"476343ee"},"id":20}