{"abi":[{"type":"constructor","inputs":[],"stateMutability":"nonpayable"},{"type":"function","name":"addProduct","inputs":[{"name":"_name","type":"string","internalType":"string"},{"name":"_description","type":"string","internalType":"string"}],"outputs":[],"stateMutability":"payable"},{"type":"function","name":"addProductFee","inputs":[],"outputs":[{"name":"","type":"uint256","internalType":"uint256"}],"stateMutability":"view"},{"type":"function","name":"getAllProducts","inputs":[],"outputs":[{"name":"","type":"tuple[]","internalType":"struct ProductContract.Product[]","components":[{"name":"id","type":"uint256","internalType":"uint256"},{"name":"name","type":"string","internalType":"string"},{"name":"description","type":"string","internalType":"string"},{"name":"creator","type":"address","internalType":"address"},{"name":"feedbackCount","type":"uint256","internalType":"uint256"}]}],"stateMutability":"view"},{"type":"function","name":"getProduct","inputs":[{"name":"_productId","type":"uint256","internalType":"uint256"}],"outputs":[{"name":"","type":"tuple","internalType":"struct ProductContract.Product","components":[{"name":"id","type":"uint256","internalType":"uint256"},{"name":"name","type":"string","internalType":"string"},{"name":"description","type":"string","internalType":"string"},{"name":"creator","type":"address","internalType":"address"},{"name":"feedbackCount","type":"uint256","internalType":"uint256"}]}],"stateMutability":"view"},{"type":"function","name":"incrementFeedbackCount","inputs":[{"name":"_productId","type":"uint256","internalType":"uint256"}],"outputs":[],"stateMutability":"nonpayable"},{"type":"function","name":"owner","inputs":[],"outputs":[{"name":"","type":"address","internalType":"address"}],"stateMutability":"view"},{"type":"function","name":"productCount","inputs":[],"outputs":[{"name":"","type":"uint256","internalType":"uint256"}],"stateMutability":"view"},{"type":"function","name":"products","inputs":[{"name":"","type":"uint256","internalType":"uint256"}],"outputs":[{"name":"id","type":"uint256","internalType":"uint256"},{"name":"name","type":"string","internalType":"string"},{"name":"description","type":"string","internalType":"string"},{"name":"creator","type":"address","internalType":"address"},{"name":"feedbackCount","type":"uint256","internalType":"uint256"}],"stateMutability":"view"},{"type":"function","name":"withdrawFees","inputs":[],"outputs":[],"stateMutability":"nonpayable"},{"type":"event","name":"FeedbackAdded","inputs":[{"name":"productId","type":"uint256","indexed":false,"internalType":"uint256"}],"anonymous":false},{"type":"event","name":"ProductAdded","inputs":[{"name":"productId","type":"uint256","indexed":false,"internalType":"uint256"},{"name":"creator","type":"address","indexed":false,"internalType":"address"},{"name":"name","type":"string","indexed":false,"internalType":"string"},{"name":"description","type":"string","indexed":false,"internalType":"string"}],"anonymous":false}],"bytecode":{"object":"0x608060405266015b276ef3470060035534801561001b57600080fd5b50600280546001600160a01b03191633179055610d928061003d6000396000f3fe6080604052600436106100865760003560e01c80638da5cb5b116100595780638da5cb5b14610122578063b9db15b41461015a578063be286cfe14610187578063ca2efb55146101a7578063e0f6ef87146101ba57600080fd5b806302ee3a521461008b57806320982c04146100b6578063476343ee146100da5780637acc0b20146100f1575b600080fd5b34801561009757600080fd5b506100a06101d0565b6040516100ad919061098b565b60405180910390f35b3480156100c257600080fd5b506100cc60035481565b6040519081526020016100ad565b3480156100e657600080fd5b506100ef6103d9565b005b3480156100fd57600080fd5b5061011161010c3660046109ef565b61047e565b6040516100ad959493929190610a08565b34801561012e57600080fd5b50600254610142906001600160a01b031681565b6040516001600160a01b0390911681526020016100ad565b34801561016657600080fd5b5061017a6101753660046109ef565b6105c6565b6040516100ad9190610a51565b34801561019357600080fd5b506100ef6101a23660046109ef565b610737565b6100ef6101b5366004610b0e565b61075c565b3480156101c657600080fd5b506100cc60005481565b60606000805467ffffffffffffffff8111156101ee576101ee610a6b565b60405190808252806020026020018201604052801561022757816020015b6102146108ac565b81526020019060019003908161020c5790505b50905060015b60005481116103d357600081815260016020818152604092839020835160a081019094528054845291820180549184019161026790610b72565b80601f016020809104026020016040519081016040528092919081815260200182805461029390610b72565b80156102e05780601f106102b5576101008083540402835291602001916102e0565b820191906000526020600020905b8154815290600101906020018083116102c357829003601f168201915b505050505081526020016002820180546102f990610b72565b80601f016020809104026020016040519081016040528092919081815260200182805461032590610b72565b80156103725780601f1061034757610100808354040283529160200191610372565b820191906000526020600020905b81548152906001019060200180831161035557829003601f168201915b505050918352505060038201546001600160a01b03166020820152600490910154604090910152826103a5600184610bbc565b815181106103b5576103b5610bd5565b602002602001018190525080806103cb90610beb565b91505061022d565b50919050565b6002546001600160a01b031633146104425760405162461bcd60e51b815260206004820152602160248201527f4f6e6c79206f776e65722063616e2063616c6c20746869732066756e6374696f6044820152603760f91b60648201526084015b60405180910390fd5b6002546040516001600160a01b03909116904780156108fc02916000818181858888f1935050505015801561047b573d6000803e3d6000fd5b50565b60016020819052600091825260409091208054918101805461049f90610b72565b80601f01602080910402602001604051908101604052809291908181526020018280546104cb90610b72565b80156105185780601f106104ed57610100808354040283529160200191610518565b820191906000526020600020905b8154815290600101906020018083116104fb57829003601f168201915b50505050509080600201805461052d90610b72565b80601f016020809104026020016040519081016040528092919081815260200182805461055990610b72565b80156105a65780601f1061057b576101008083540402835291602001916105a6565b820191906000526020600020905b81548152906001019060200180831161058957829003601f168201915b50505050600383015460049093015491926001600160a01b031691905085565b6105ce6108ac565b600082815260016020818152604092839020835160a08101909452805484529182018054918401916105ff90610b72565b80601f016020809104026020016040519081016040528092919081815260200182805461062b90610b72565b80156106785780601f1061064d57610100808354040283529160200191610678565b820191906000526020600020905b81548152906001019060200180831161065b57829003601f168201915b5050505050815260200160028201805461069190610b72565b80601f01602080910402602001604051908101604052809291908181526020018280546106bd90610b72565b801561070a5780601f106106df5761010080835404028352916020019161070a565b820191906000526020600020905b8154815290600101906020018083116106ed57829003601f168201915b505050918352505060038201546001600160a01b0316602082015260049091015460409091015292915050565b600081815260016020526040812060040180549161075483610beb565b919050555050565b6003543410156107bc5760405162461bcd60e51b815260206004820152602560248201527f496e73756666696369656e742066656520666f7220616464696e6720612070726044820152641bd91d58dd60da1b6064820152608401610439565b6000805490806107cb83610beb565b90915550506040805160a081018252600080548083526020808401878152848601879052336060860152608085018490529183526001908190529390912082518155905191929091908201906108219082610c55565b50604082015160028201906108369082610c55565b5060608201516003820180546001600160a01b0319166001600160a01b039092169190911790556080909101516004909101556000546040517f6b3f37913aaf9478733d6bfbdd423a3362aa3ee9eb58d39d95699471bb157027916108a091339086908690610d15565b60405180910390a15050565b6040518060a0016040528060008152602001606081526020016060815260200160006001600160a01b03168152602001600081525090565b6000815180845260005b8181101561090a576020818501810151868301820152016108ee565b506000602082860101526020601f19601f83011685010191505092915050565b805182526000602082015160a0602085015261094960a08501826108e4565b90506040830151848203604086015261096282826108e4565b6060858101516001600160a01b0316908701526080948501519490950193909352509192915050565b600060208083016020845280855180835260408601915060408160051b87010192506020870160005b828110156109e257603f198886030184526109d085835161092a565b945092850192908501906001016109b4565b5092979650505050505050565b600060208284031215610a0157600080fd5b5035919050565b85815260a060208201526000610a2160a08301876108e4565b8281036040840152610a3381876108e4565b6001600160a01b039590951660608401525050608001529392505050565b602081526000610a64602083018461092a565b9392505050565b634e487b7160e01b600052604160045260246000fd5b600082601f830112610a9257600080fd5b813567ffffffffffffffff80821115610aad57610aad610a6b565b604051601f8301601f19908116603f01168101908282118183101715610ad557610ad5610a6b565b81604052838152866020858801011115610aee57600080fd5b836020870160208301376000602085830101528094505050505092915050565b60008060408385031215610b2157600080fd5b823567ffffffffffffffff80821115610b3957600080fd5b610b4586838701610a81565b93506020850135915080821115610b5b57600080fd5b50610b6885828601610a81565b9150509250929050565b600181811c90821680610b8657607f821691505b6020821081036103d357634e487b7160e01b600052602260045260246000fd5b634e487b7160e01b600052601160045260246000fd5b81810381811115610bcf57610bcf610ba6565b92915050565b634e487b7160e01b600052603260045260246000fd5b600060018201610bfd57610bfd610ba6565b5060010190565b601f821115610c50576000816000526020600020601f850160051c81016020861015610c2d5750805b601f850160051c820191505b81811015610c4c57828155600101610c39565b5050505b505050565b815167ffffffffffffffff811115610c6f57610c6f610a6b565b610c8381610c7d8454610b72565b84610c04565b602080601f831160018114610cb85760008415610ca05750858301515b600019600386901b1c1916600185901b178555610c4c565b600085815260208120601f198616915b82811015610ce757888601518255948401946001909101908401610cc8565b5085821015610d055787850151600019600388901b60f8161c191681555b5050505050600190811b01905550565b8481526001600160a01b0384166020820152608060408201819052600090610d3f908301856108e4565b8281036060840152610d5181856108e4565b97965050505050505056fea2646970667358221220918413df1621432801cfff99599816e67b59db6cf52da138026f8b489b7745af64736f6c63430008170033","linkReferences":{}},"methodIdentifiers":{"addProduct(string,string)":"ca2efb55","addProductFee()":"20982c04","getAllProducts()":"02ee3a52","getProduct(uint256)":"b9db15b4","incrementFeedbackCount(uint256)":"be286cfe","owner()":"8da5cb5b","productCount()":"e0f6ef87","products(uint256)":"7acc0b20","withdrawFees()":"476343ee"},"id":20}